:020000040000FA
:04000000C4EF09F050
:10060000003F065B4F666D7D077F6F777C395E79B3
:10061000710068BE17EF03F0685007E1080E675CD1
:10062000D8B015EF03F017EF03F041EF03F0695076
:100630006A10D8B41EEF03F020EF03F030EF03F0A0
:1006400067C06BF0010E6C6E6B2A29EF03F0D89037
:100650006C366B2E27EF03F06C509212EDEF04F026
:1006600067C06BF0010E6C6E6B2A39EF03F0D89007
:100670006C366B2E37EF03F06C50FF0A9216EDEFDD
:1006800004F068BE4FEF03F0685007E10B0E675CA3
:10069000D8B04DEF03F04FEF03F07DEF03F069505A
:1006A0006A10D8B456EF03F058EF03F06AEF03F086
:1006B00067C06BF0F80E6B26010E6C6E6B2A63EF51
:1006C00003F0D8906C366B2E61EF03F06C509612ED
:1006D000EDEF04F067C06BF0F80E6B26010E6C6E48
:1006E0006B2A75EF03F0D8906C366B2E73EF03F026
:1006F0006C50FF0A9616EDEF04F068BE89EF03F028
:10070000685009E10F0E675CD8A089EF03F08BEF0A
:1007100003F0C7EF03F068BE99EF03F0685007E1FC
:10072000130E675CD8B097EF03F099EF03F0C7EFB3
:1007300003F069506A10D8B4A0EF03F0A2EF03F001
:10074000B4EF03F067C06BF0F10E6B26010E6C6E18
:100750006B2AADEF03F0D8906C366B2EABEF03F045
:100760006C509412EDEF04F067C06BF0F10E6B2645
:10077000010E6C6E6B2ABFEF03F0D8906C366B2EB7
:10078000BDEF03F06C50FF0A9416EDEF04F068BE65
:10079000D3EF03F0685009E1170E675CD8A0D3EFE0
:1007A00003F0D5EF03F011EF04F068BEE3EF03F0C0
:1007B000685007E11B0E675CD8B0E1EF03F0E3EF90
:1007C00003F011EF04F069506A10D8B4EAEF03F0B7
:1007D000ECEF03F0FEEF03F067C06BF0ED0E6B265D
:1007E000010E6C6E6B2AF7EF03F0D8906C366B2E0F
:1007F000F5EF03F06C509412EDEF04F067C06BF06E
:10080000ED0E6B26010E6C6E6B2A09EF04F0D8908A
:100810006C366B2E07EF04F06C50FF0A9416EDEF68
:1008200004F068BE1DEF04F0685009E1130E675C28
:10083000D8A01DEF04F01FEF04F05BEF04F068BEDA
:100840002DEF04F0685007E1170E675CD8B02BEF6E
:1008500004F02DEF04F05BEF04F069506A10D8B497
:1008600034EF04F036EF04F048EF04F067C06BF0AB
:10087000ED0E6B26010E6C6E6B2A41EF04F0D890E2
:100880006C366B2E3FEF04F06C509512EDEF04F0D8
:1008900067C06BF0ED0E6B26010E6C6E6B2A53EF8A
:1008A00004F0D8906C366B2E51EF04F06C50FF0AB8
:1008B0009516EDEF04F068BE67EF04F0685009E1AB
:1008C0001B0E675CD8A067EF04F069EF04F0A5EF9A
:1008D00004F068BE77EF04F0685007E11F0E675C14
:1008E000D8B075EF04F077EF04F0A5EF04F069508D
:1008F0006A10D8B47EEF04F080EF04F092EF04F0B9
:1009000067C06BF0E90E6B26010E6C6E6B2A8BEFE5
:1009100004F0D8906C366B2E89EF04F06C50951271
:10092000EDEF04F067C06BF0E90E6B26010E6C6E04
:100930006B2A9DEF04F0D8906C366B2E9BEF04F081
:100940006C50FF0A9516EDEF04F068BEB1EF04F0AD
:10095000685009E1210E675CD8A0B1EF04F0B3EF55
:1009600004F0EDEF04F068BEC1EF04F0685007E159
:10097000280E675CD8B0BFEF04F0C1EF04F0EDEFD4
:1009800004F069506A10D8B4C8EF04F0CAEF04F05C
:10099000DCEF04F067C06BF0DF0E6B26010E6C6EAF
:1009A0006B2AD5EF04F0D8906C366B2ED3EF04F0A1
:1009B0006C509312EDEF04F067C06BF0DF0E6B2606
:1009C000010E6C6E6B2AE7EF04F0D8906C366B2E3C
:1009D000E5EF04F06C50FF0A9316120068BEFCEFBE
:1009E00004F0685007E1080E675CD8B0FAEF04F035
:1009F000FCEF04F026EF05F069506A10D8B403EF5D
:100A000005F005EF05F015EF05F067C06BF0010E7E
:100A10006C6E6B2A0EEF05F0D8906C366B2E0CEFD7
:100A200005F06C508012D2EF06F067C06BF0010E3B
:100A30006C6E6B2A1EEF05F0D8906C366B2E1CEF97
:100A400005F06C50FF0A8016D2EF06F068BE34EF56
:100A500005F0685007E10B0E675CD8B032EF05F087
:100A600034EF05F062EF05F069506A10D8B43BEF3F
:100A700005F03DEF05F04FEF05F067C06BF0F80EA5
:100A80006B26010E6C6E6B2A48EF05F0D8906C3621
:100A90006B2E46EF05F06C508412D2EF06F067C063
:100AA0006BF0F80E6B26010E6C6E6B2A5AEF05F098
:100AB000D8906C366B2E58EF05F06C50FF0A8416F8
:100AC000D2EF06F068BE6EEF05F0685009E10F0E38
:100AD000675CD8A06EEF05F070EF05F0ACEF05F0A5
:100AE00068BE7EEF05F0685007E1130E675CD8B072
:100AF0007CEF05F07EEF05F0ACEF05F069506A1071
:100B0000D8B485EF05F087EF05F099EF05F067C0E1
:100B10006BF0F10E6B26010E6C6E6B2A92EF05F0F6
:100B2000D8906C366B2E90EF05F06C508212D2EF9D
:100B300006F067C06BF0F10E6B26010E6C6E6B2A2F
:100B4000A4EF05F0D8906C366B2EA2EF05F06C5038
:100B5000FF0A8216D2EF06F068BEB8EF05F06850C3
:100B600009E1170E675CD8A0B8EF05F0BAEF05F001
:100B7000F6EF05F068BEC8EF05F0685007E11B0E00
:100B8000675CD8B0C6EF05F0C8EF05F0F6EF05F0EA
:100B900069506A10D8B4CFEF05F0D1EF05F0E3EF5C
:100BA00005F067C06BF0ED0E6B26010E6C6E6B2AC4
:100BB000DCEF05F0D8906C366B2EDAEF05F06C5058
:100BC0008212D2EF06F067C06BF0ED0E6B26010EBD
:100BD0006C6E6B2AEEEF05F0D8906C366B2EECEF56
:100BE00005F06C50FF0A8216D2EF06F068BE02EFE5
:100BF00006F0685009E1130E675CD8A002EF06F01A
:100C000004EF06F040EF06F068BE12EF06F0685001
:100C100007E1170E675CD8B010EF06F012EF06F090
:100C200040EF06F069506A10D8B419EF06F01BEFD8
:100C300006F02DEF06F067C06BF0ED0E6B26010E8F
:100C40006C6E6B2A26EF06F0D8906C366B2E24EF74
:100C500006F06C508312D2EF06F067C06BF0ED0E19
:100C60006B26010E6C6E6B2A38EF06F0D8906C364E
:100C70006B2E36EF06F06C50FF0A8316D2EF06F0AB
:100C800068BE4CEF06F0685009E11B0E675CD8A007
:100C90004CEF06F04EEF06F08AEF06F068BE5CEF10
:100CA00006F0685007E11F0E675CD8B05AEF06F0F7
:100CB0005CEF06F08AEF06F069506A10D8B463EF73
:100CC00006F065EF06F077EF06F067C06BF0E90E0F
:100CD0006B26010E6C6E6B2A70EF06F0D8906C36A6
:100CE0006B2E6EEF06F06C508312D2EF06F067C0E9
:100CF0006BF0E90E6B26010E6C6E6B2A82EF06F02C
:100D0000D8906C366B2E80EF06F06C50FF0A83167D
:100D1000D2EF06F068BE96EF06F0685009E1210EAA
:100D2000675CD8A096EF06F098EF06F0D2EF06F0D9
:100D300068BEA6EF06F0685007E1280E675CD8B0E1
:100D4000A4EF06F0A6EF06F0D2EF06F069506A10A5
:100D5000D8B4ADEF06F0AFEF06F0C1EF06F067C014
:100D60006BF0DF0E6B26010E6C6E6B2ABAEF06F08D
:100D7000D8906C366B2EB8EF06F06C508112D2EF23
:100D800006F067C06BF0DF0E6B26010E6C6E6B2AEF
:100D9000CCEF06F0D8906C366B2ECAEF06F06C5094
:100DA000FF0A811612000EEC0AF0300E6F6E000E74
:100DB000706EA5EC09F0000E5D6EC00EACEC08F094
:100DC00012EF07F019EC0AF05450671809E155507A
:100DD0006818D8B4EEEF06F0F0EF06F010EF07F069
:100DE00019EC0AF067506810D8B4F9EF06F0FBEF81
:100DF00006F010EF07F019EC0AF067C054F068C075
:100E000055F050EC08F05F6E5F5054EC09F04E0E58
:100E10005D24D96EDA6A000EDA225FC0DFFF5D2A38
:100E200093EC07F0050E5D6418EF07F01AEF07F07A
:100E3000E2EF06F0000E5D6E4E0E5D24D96EDA6AAA
:100E4000000EDA22190E5D24E16EE26A000EE22243
:100E5000DE50E618D8A42FEF07F031EF07F032EF9D
:100E600007F05C2A5D2A050E5D6439EF07F03BEF61
:100E700007F01CEF07F0060E5C18D8B442EF07F03D
:100E800044EF07F04FEF07F0000E5C6E010EACEC84
:100E900008F0200E6F6E000E706EA5EC09F0000ECB
:100EA0005D6E000E5E6E5E2A5E28D8A45AEF07F0D3
:100EB0005CEF07F053EF07F0000E5E6E5E2A5E28CF
:100EC000D8A465EF07F067EF07F05EEF07F05D2A43
:100ED0005D28D8A46EEF07F070EF07F051EF07F030
:100EE000000E5D6E000E5E6E5E2A5E28D8A47BEF5B
:100EF00007F07DEF07F074EF07F0000E5E6E5E2ADC
:100F00005E28D8A486EF07F088EF07F07FEF07F0A0
:100F10005D2A5D28D8A48FEF07F091EF07F072EFFC
:100F200007F05C50120083CF6CF00F0E9512000E8C
:100F3000706E080E931670C067F0010E686E672A17
:100F4000A4EF07F0D8906836672EA2EF07F068503C
:100F5000FF0A9316070E811270C067F0010E686ECB
:100F6000672AB5EF07F0D8906836672EB3EF07F021
:100F70006850FF0A8116000E6E6E000E6D6E6D4A8F
:100F80006E2A6EBECDEF07F06E5009E10A0E6D5C61
:100F9000D8A0CDEF07F0CFEF07F0BFEF07F0010EBD
:100FA0006F6E6FC067F0010E686E672ADAEF07F0A8
:100FB000D8906836672ED8EF07F068508316D8A40B
:100FC000E4EF07F0E6EF07F0FEEF07F07050030DD7
:100FD000F3506F24676E010E686E000E696E672A0B
:100FE000F5EF07F0D89068366936672EF2EF07F014
:100FF000685058126950591218EF08F07050030DDC
:10100000F3506F24676E010E686E000E696E672ADA
:101010000DEF08F0D89068366936672E0AEF08F0B1
:10102000681C6A6E691C6B6E6A5058166B505916B4
:101030006F2A030E6F641FEF08F021EF08F0D1EF65
:1010400007F0702A030E706428EF08F02AEF08F00A
:1010500099EF07F05850561807E159505718D8A47F
:1010600034EF08F036EF08F039EF08F066063FEF8E
:1010700008F00A0E666E58C056F059C057F0665018
:10108000D8A445EF08F047EF08F04BEF08F056C042
:101090005AF057C05BF06CC083FF000E956E1200D3
:1010A0006DEF08F0310EABEF08F0320EABEF08F049
:1010B000330EABEF08F0340EABEF08F0350EABEFAC
:1010C00008F0360EABEF08F0370EABEF08F0380E35
:1010D000ABEF08F0390EABEF08F019EC0AF06850EE
:1010E000000AD8B47EEF08F0010AD8B49DEF08F0EA
:1010F000030AD8B4A4EF08F0ABEF08F06750020A77
:10110000D8B464EF08F0060AD8B45BEF08F00C0A14
:10111000D8B452EF08F0180AD8B467EF08F0300AD4
:10112000D8B45EEF08F0600AD8B455EF08F0C00AF2
:10113000D8B46AEF08F0ABEF08F06750000AD8B4F3
:1011400061EF08F0ABEF08F06750000AD8B458EF31
:1011500008F0ABEF08F012006E6E83CF6DF0000E5A
:10116000956E000E686E0A0E676E000E6A6E000EB7
:10117000696EEEEC04F06EC083FF000E686E090E1F
:10118000676E000E6A6E010E696EEEEC04F0000EE2
:10119000686E090E676E000E6A6E000E696EEEECE8
:1011A00004F06DC083FF020E6E18D8B4DAEF08F0B9
:1011B000DCEF08F0E4EF08F06E04D8A4E2EF08F0EA
:1011C000E4EF08F0E8EF08F0F4EC09F0EAEF08F0DB
:1011D00002EC0AF01200000E686E0A0E676E000E36
:1011E0006A6E000E696E09EC03F0000E686E090E5F
:1011F000676E000E6A6E000E696E09EC03F0000E59
:10120000956EF4EC09F0F4EC09F0F4EC09F0F4EC70
:1012100009F0F4EC09F0380EACEC08F0F4EC09F04D
:10122000F4EC09F0380EACEC08F0F4EC09F0380EF0
:10123000ACEC08F0380EACEC08F0060EACEC08F0A4
:101240000C0EACEC08F0010EACEC08F01200EBEC6C
:1012500008F0400EACEC08F00E0E54EC09F00A0E4B
:1012600054EC09F00A0E54EC09F01F0E54EC09F08E
:101270001F0E54EC09F01F0E54EC09F01F0E54EC35
:1012800009F0000E54EC09F0800EACEC08F0000EF2
:1012900054EC09F03F0E6F6E000E706EA5EC09F075
:1012A000000E54EC09F012006D6E83CF6EF0000E4C
:1012B000956E000E686E0A0E676E000E6A6E010E65
:1012C000696EEEEC04F06DC083FF000E686E090ECF
:1012D000676E000E6A6E010E696EEEEC04F0000E91
:1012E000686E090E676E000E6A6E000E696EEEEC97
:1012F00004F06EC083FF02EC0AF01200414C45522C
:1013000054412046414C4841204E4F2053495354AC
:10131000454D41003132333435360074656E7465A5
:10132000206E6F76616D656E7465006469676974BF
:101330006520612073656E68610053495354454DC3
:09134000412053454755524F006E
:10134A00000E716E000E716EB5EF09F071506F24C8
:10135A00D96E000E7020DA6EDF5054EC09F0712A53
:10136A0071506F24D96E000E7020DA6EDF50D8A447
:10137A00C1EF09F0C3EF09F0ABEF09F01200FC0E60
:10138A00F66E120EF76E000EF86E00EE01F010EE19
:10139A004DF00900F5CFEEFFE550E150FAE100EE1D
:1013AA004EF0190EEE6AE806FDE1000EF86E000135
:1013BA00DFEF09F09490EBEC08F0D3EC06F0746ED2
:1013CA007450D8B4EBEF09F0EDEF09F0E2EF09F051
:1013DA0027EC09F08280F0EF09F000EF00F0000E30
:1013EA00686E02EC0AF0682A310E6864FFEF09F0B1
:1013FA0001EF0AF0F6EF09F01200000E676E672A95
:10140A00180E67640BEF0AF00DEF0AF004EF0AF00A
:10141A001200080E93160F0E9512310EC26E0F0EA1
:10142A00C16EAA0EC06E12005AC067F05BC068F0A7
:02143A0012009E
:020000040020DA
:08000000FFFFFFFFFFFFFFFF00
:020000040030CA
:0E000000FF027100FF8380FF0FC00FE00F4072
:00000001FF
